:4000000000800020110000001D0700001D07000008B5044B1A6803F53F5302331A6000F09DFB00BFFA46004010B5054C237833B9044B13B10448AFF300800123237010BD97
:400040008081FF1F000000002C410000084B10B51BB108490848AFF300800848036803B910BD074B002BFBD0BDE81040184700BF000000008481FF1F2C410000C880FF1FB8
:400080000000000008B5002001F088F8002001F091F808BD08B5012001F080F8002001F089F808BD08B5002001F078F8012001F081F808BD10B501F0CFF800240EE00021B7
:4000C0003C2001F045FA002001F09EFA054B185D01F09AFA01F07CFA0134E4B2182CEED910BD00BF3041000038B52038C5B25E2D14D938BD00213C2001F02AFA402001F03B
:4001000083FA05EB4502530023440E4AD05C01F07BFA01F05DFA0134E4B200E00024052CE8D900213C2001F013FA402001F06CFA002001F069FA01F04BFA034A1378073370
:40014000137038BD4C4100009C81FF1F10B5044602E00134FFF7C8FF20780028F9D110BD38B5C908A1F15004E4B200F00F0500213C2001F0EDF9002001F046FA204601F0CB
:4001800043FA01F025FA00213C2001F0E1F9002001F03AFA284601F037FA01F019FA00213C2001F0D5F9002001F02EFA102001F02BFA01F00DFA38BD38B500251AE0E90034
:4001C00001F0F8010020FFF7CBFF00240DE000213C2001F0BDF9402001F016FA002001F013FA01F0F5F90134E4B214F0800FEED00135EDB2072DE2D9024B00221A705A70FF
:4002000038BD00BF9C81FF1F08B562B6FFF752FF00F07AFB084800F091FB084800F08EFB074800F08BFB00F0DDFD00F0A1FF00F0F5FBFFF727FF08BD8C430000A443000023
:40024000D8430000000000002DE9704382B000F0DDFD002000F0E2FD0028FAD000F0F6FD3D4B186001F05EFB00223C4B01F0C0FB35A3D3E9002301F0E5FC01F073FE384BCD
:40028000186001F061FB804689460022334B01F0D9FC2FA3D3E9002301F0AAFB01F042FEC5B2304B1D70284601F03CFB28A3D3E9002301F0C7FC00222B4B01F099FB01F085
:4002C00031FEC6B2294C0196009542464B462849204602F047FB204600F030FB32462549204602F03FFB00210846FFF739FF2046FFF72CFF204B1B780BB1204A00E0204A07
:400300001A4C2049204602F02DFB08210020FFF727FF2046FFF71AFF114B186801F014FB02460B461849204602F01CFB10210020FFF716FF2046FFF709FF0A4B187800F0BA
:4003400023FB02B0BDE8708300000000FEFF2F410000000000E06F40BC82FF1F00001440C082FF1FC482FF1F00005940BC81FF1F1C440000544400009E81FF1F0844000030
:4003800014440000604400006844000000B589B000F0FCFE20BB322000F03CFA00F0F6FEC0B9114A1378B3FA83F35B0913700BB10E4A00E00E4A0F49684602F0D3FA68465E
:4003C00000F0BCFA084B1B7813B9FFF763FE01E0FFF768FE00F0DAFE0028FBD0FFF7ECFE09B05DF804FB00BF9E81FF1F08440000144400007844000008B5FFF705FFFFF760
:40040000DBFEFFF721FFFFF7C1FF0A2000F002FAF7E700BFFEE700BFF0B40022174611E050F82760F3B226F0FF0608E001EB420511F812406D78A5550132013BDBB2002BA1
:40044000F4D10137192FEBD9F0BC70470E4B1B78DBB203F007010D4A11701B09013213708023A2F25372137048F208012032118002F6C4121370052147321170113213700E
:400480004422034B1A707047CF0100496E5800407658004008B50A46002101F0EAFD08BD08B501F0DBFD08BD38B50024314B1C80502202331A70192502331D8018232E4AE7
:4004C000137040F65F11023211800232137004222A492B48FFF7E4FF06222A4B1A705222A3F580731A70284B1B78DBB2274A13704FF4E162264B1A8041F25122023B1A802D
:400500000CE0244B1B7803F0010343EA440404F003044FF4F07001F0A3F8013D0DB1032CEFD115B90320FFF775FF1B4A4FF48073138007231370002318490B70482002317C
:4005400008701370053213700222154B1A7004220A331A70134A137843F007031370013A137843F001031370013A137843F08003137038BD8040004086400040F00400486D
:4005800000410040004300400F010049A14600402242004025420040044000400640004001400040A2430040012807D8044B53F820201844017A13780B431370704700BF31
:4005C00088440000012808D8044B53F820201844017A137823EA0103137070478844000038B572B6394A137843F00403137000240BE0374863001A19510001440A46098A56
:40060000D068FFF747FF0134E4B2072CF1D900240CE02F48A20011194B000344B3F84420196CD86BFFF73CFF0134E4B2012CF0D928494FF09040FFF7EFFE0A25264B1D7040
:40064000264A137843F0020313701032137843F002031370224C237843F040032370A2F58632513A137843F01003137008221D491D48FFF715FF2A461C491D48FFF710FFBE
:4006800008221C491C48FFF70BFF08221B491C48FFF706FF2A461B491B48FFF701FF1B4A137843F008031370194D61232B70FFF7FBFE81232B700122164B1A70FFF7C6FE01
:4006C0000E2221461448FFF7EBFE38BDE846004088440000680000488358004003500140A0430040C004004802510040C8040048C0510040D4040048F2510040DC040048A8
:4007000012510040E404004820510040224300400048004004000840B043004008B501F071FC03680C2B00D1FEE7FEE708B5094B1A681044084BC31AB3F5A06F02DC054B35
:40074000186005E001F05EFC0C2303604FF0FF32104608BDCC80FF1FE882FF1F08B5104E104D16E029686B68AC68002204E051F8040B43F8040B0432A242F8D1E8680022DF
:4007800003E0002143F8041B04328242F9D11035013E002EE6D101F03BFCFFF72DFEFEE7010000006046000008B5104A104B1A60104A136843F40073136000230AE0032BC0
:4007C00003D80D4A52F8231000E00C490C4A42F8231001332F2BF2D90A4B1A780A4B1A70074A0A4B1A60FFF7FBFE08BD0004FA050CED00E014ED00E0000000001D0700007E
:400800000080FF1FBC760040C080FF1F08ED00E001BE704710B5044605E0084B186800F01FFFA4F50044B4F5004FF6D8034B586800FB04F000F014FF10BD00BFD080FF1F8D
:4008400008B5034B1B7A00FB03F000F009FF08BDD080FF1F70B504460E46074B1D681F2802D90020FFF7D4FF04F01F04103455F8240045F8246070BD08ED00E038B5044654
:400880000D46072902D90020FFF7C2FF1F2C02D90020FFF7BDFF04F01F0000F1604000F564406D01EDB2057038BD00BF7222074B1A70202201331A700622603B1A70472272
:4008C00010331A7000224E331A7070478A65004010B500F0CDFE04460A4A137843F0200313700132137843F010031370023A137843F01003137000F0E1FA204600F0BCFEA4
:4009000010BD00BF9A65004008B5054B1B7823B9FFF7CCFF0122024B1A70FFF7D9FF08BD9F81FF1F034B1B7813F0040FFAD1024B18707047696500404964004038B5074B5C
:400940001B782BB938BDFFF7EDFF0134A4B201E005460024285D0028F5D138BD9F81FF1F024A137843F080031370704778640040014B1870704700BF08640040014B1870FB
:40098000704700BF48640040014B1870704700BF28640040014B1870704700BF88640040014B1878704700BF68640040014B1878704700BF5864004008B501E0FFF7F6FF14
:4009C000FFF7EEFF10F0100FF8D108BD10B5114A137803F0C00343F0090313700E4C237843F001032370FF20FFF7C2FFFF20FFF7C5FF0F20FFF7C8FF0020FFF7CBFF00F01A
:400A000037FE237843F01003237000F035FEFFF7D3FF10BD786400409864004008B5054B1B7823B9FFF7D2FF0122024B1A70FFF797FF08BDA181FF1F10B59DF80840012C60
:400A400051D1013809282ED8DFE800F0052D2D052D2D0F192D230F2B03D92548007840B222E02448007840B21EE00F2B03D92248007840B218E02148007840B214E00F2B51
:400A800003D91F48007840B20EE01E48007840B20AE00F2B03D91C48007840B204E01B48007840B200E0002001EB401101FB02F1C90B8AB20D2B0BD8C3F10E0289B21141A4
:400AC0008AB2611E124800EB810101338B7005E0631E0F4901EB83030F219970013C0C4B23F8242010BD0020FFF792FE10BD00BF180100491C010049190100491D01004958
:400B00001A0100491E0100491B0100491F010049A481FF1FF8B5074600F0AAFD06460D4D2B7843F003032B700B4C237843F0030323700A4B1F700320FFF782FE2B7803F059
:400B4000FC032B70237803F0FC032370304600F093FDF8BDF8460040F9460040925800400022314B1A7101285DD170B578222F4B1A70002402331C70092201331A707F2336
:400B80002B4A13700132147001321370294B1C7001331C7001331C7001250A331D70502203F527631A700A2201331A702C2201331A7001331C70442203331A704822013368
:400BC0001A7001331D70022602331E70122201331A70282201331A70EB2201331A705220FFF798FF5822144B1A7001331C70052205331A7001331E7001331C7001331C70AD
:400C0000204600F079F90D4A0D4B1A602946284600F096F92946072000F016FA09491D20FFF718FE70BD7047A481FF1F004E0040044E0040084E00409458004033330300C4
:400C4000C882FF1FB90E0000F0B583B0274D01272F70274E00247471102000F05FF9102000F0E0F907211D20FFF708FE0422214B1A7001331C7007331C701F4A137843F019
:400C8000180313701D4B1C7003F2F5231C7001331C700A22A3F209331A7001331C7002331C705B2205331A705E2201331A7004331C701423124A137000974FF4004248F691
:400CC000F0510220FFF7B8FE2B78013B06EB83039A780C4B1A702B78013B36F823200A4B1A802878FFF73CFF03B0F0BDE080FF1FA481FF1F96580040075B00409358004070
:400D0000014E00400E4E00400C4E004070B500F0AFFC06462A4B1B782A4B1A7842F001021A701A7842F010021A7010331A7842F001021A701A7842F010021A70224D2B78AE
:400D400043F002032B70214C237843F0020323701F4A137843F0030313700320FFF770FD2B7803F0FD032B70237803F0FD032370184A137843F0060313707A22164B1A7012
:400D8000164A137843F0010313701032137843F0010313700F3A137843F0010313701032137843F0010313704FF000530C4A1360A2F5C0721360304600F05EFC70BD00BFAF
:400DC000E080FF1FAA430040F8460040F9460040915800407758004082580040A143004080E200E008B5084B9B794BB9064BDB7913F0FF0F01D1FFF727FF0122024B9A714C
:400E0000FFF784FF08BD00BFA481FF1F024A137843F0010313707047004E0040094B1B7913F0FF0F03D0074B5B79DBB203E0064B1B7803F00103012B01D00028EED018461E
:400E4000704700BFA481FF1F014E0040154B1B7803F00303012B07D8134B1888023B1B889BB243EA004013E0022B0AD10E4B1888023B1B7843EA00430C4A107843EA00203C
:400E800006E00B4B188883B2074A108843EA0040084B1B7913F0FF0F02D00022054B5A71704700BF144E0040124E0040114E0040104E0040A481FF1F704700BF054A13783C
:400EC00043F0020313701032137843F002031370704700BFA243004010B5002404E02046FFF770FB0134E4B2012CF8D9FF22014B1A7010BDE180FF1F10B50446FFF7ECFF84
:400F00002046FFF751FB014B1C7010BDE180FF1F014B188880B2704780400040034B1A7800F0F80010431870704700BF82400040024B187800F00700704700BF82400040A9
:400F400070B505460E46FFF7F3FF0446FFF7E0FFA84256D02B4B1B7803F0010294B900B185B938B9284B1D80284A137803F0BF03137070BD254A137843F040031370224B98
:400F80001D8070BD22B3002321490B7001240F310C7004310B700C390B7803F07F030B701A4B1B7813F0080F00D08DB9194B18800721013B1970164B1B7813F0010FFAD15E
:400FC00010490B7803F0FE030B700021104B19700C4B1B7813F0010F0DD00E4B1D800EB1032200E001220A4B1A70094B1B7813F0010FFAD170BD044B1D8002490B78134309
:401000000B7070BDA243004080400040824000400140004002400040014B188880B2704700410040034B1A7800F0F80010431870704700BF02410040024B187800F0070018
:40104000704700BF0241004070B505460E46FFF7F3FF0446FFF7E0FFA84256D02B4B1B7803F0010294B900B185B938B9284B1D80284A137803F0BF03137070BD254A137804
:4010800043F040031370224B1D8070BD22B3002321490B70012413310C7004390B7008390B7803F07F030B701A4B1B7813F0080F00D08DB9194B18800721013B1970164B60
:4010C0001B7813F0010FFAD110490B7803F0FE030B700021104B19700C4B1B7813F0010F0DD00E4B1D800EB1032200E001220A4B1A70094B1B7813F0010FFAD170BD044B58
:401100001D8002490B7813430B7070BDA143004000410040024100400140004002400040084A137843F060031370A2F5A652133A137843F0080313701032137843F00803F2
:401140001370704777580040054B1A7802F0FC021A701A7800F0030010431870704700BF5E58004008B50120FFF7EEFF08BD00BF08B5054B1B7823B90122034B1A70FFF74C
:40118000F1FFFFF7CDFF08BDB081FF1F024B1878C0F38000704700BF21510040044A137803F0FE0300F0010018431070704700BF00510040044A137803F0FD03400000F095
:4011C00002001843107070470051004038B50222114B1A7081220E3B1A70082202331A700F2511331D70002401331C704FF400420A4B1A6007212846FFF740FB08492846B1
:40120000FFF728FB1022074B1A70074B1C70074B1C70074B1C7038BDD649004080E100E081120000CC82FF1FD282FF1FDA82FF1FD082FF1F08B500F01BFA064A137843F02D
:40124000040313701032137843F00403137000F013FA08BDA543004008B5074B1B7823B9FFF7B4FF0122044B1A70FFF7E3FF4FF40042024B1A6008BDB181FF1F00E100E053
:4012800038B5A54B1C78A54B1B7813F0400F00F03A81E4B214F0010F00F01D819F4B1B78453B052B00F21481DFE813F006008200120112010600DF0004F0DF0504F00A041A
:4012C000082C42D1954B1B78DBB2452B35D1944B1B7813F0FF0F10D0924B1B681B78DBB2914A137004228C4B1A7001228F4B1A7046228A4B1A702C46EDE08D4B1B7813F06E
:40130000020F0DD08B4A137843F00A0313706022824B1A704FF40042874B1A602C46DAE0864A137843F0100313701022844B1A700422023B1A702C46CDE00022764B1A709E
:401340004A22764B1A702C46C5E00A2C2BD1794A137843F0A0031370754B1B7813F0020F14D06E4B1B7813F0080F01D0092300E00A23704A11780B4313706022674B1A7039
:401380004FF400426C4B1A602C46A4E06B4A137843F0100313701022694B1A700422023B1A702C4697E00020FFF732FA2C4692E014F0020F36D15D4B1A78D2B2584B1B78FC
:4013C000DBB29A4210D2594A1378DBB255490968CB5CDBB254490B7004214F4B197013780133DBB2137076E0514B1B7813F0020F0CD0504A137843F00A0313706022474B84
:401400001A704FF400424C4B1A6064E04B4A137843F0100313701022494B1A700422023B1A7058E0424B1B7813F0020F0CD0414A137843F09A0313706022384B1A704FF49F
:4014400000423D4B1A6046E03C4A137843F01003137010223A4B1A700422023B1A70354A137843F09003137035E0364A1378DBB2354908682C490978C9B2C15413780133C7
:40148000DBB213701278D2B2304B1B78DBB29A4203D21022204B1A701DE0254B1B7813F0020F0CD0234A137843F00903137060221A4B1A704FF400421F4B1A600BE01F4AC3
:4014C000137843F0100313700022134B1A7002E00020FFF79DF914F0200F1CD00F4B1B7813F0080F01D0012300E00223114A11780B431370114A137803F0EF0313701022AB
:40150000064B1A7038BD054B1B7813F0100F02D11022024B1A7038BDD7490040CC82FF1FD182FF1FDC82FF1FD8490040D082FF1FD882FF1FD282FF1F80E100E0D6490040F1
:40154000D9490040DA82FF1FD482FF1FD982FF1F1A4B1B78DBB2102B29D1194B1B7813F0080F26D14FF40042164B1A604000C0B229B140F001004922104B1A7002E045222A
:401580000E4B1A70104B1870012201331A700F4B1B7813F0010FFAD00C4B1B7803F00A030A2B08D11022054B1A700320704702207047012070470020704700BFCC82FF1F29
:4015C000D949004080E100E0D8490040D74900400A4B1B7813F0040F0ED01023074A13700421023A1170064A1370064B1B7813F0210FFAD00020704702207047D9490040FC
:40160000CC82FF1FD7490040114B1B7813F0040F1BD0104B18700422013B1A7046220E4B1A700E4B1B7813F0010FFAD00B4B1B7813F0020F04D16022074B1A700020704704
:401640006022054B1A70032070470220704700BFD9490040D8490040CC82FF1FD74900400230800803D000BF01380046FCD17047EFF3108072B6704780F31088704700BFEC
:4016800081F0004102E000BF83F0004330B54FEA41044FEA430594EA050F08BF90EA020F1FBF54EA000C55EA020C7FEA645C7FEA655C00F0E2804FEA5454D4EB5555B8BF7E
:4016C0006D420CDD2C4480EA020281EA030382EA000083EA010180EA020281EA0303362D88BF30BD11F0004F4FEA01314FF4801C4CEA113102D0404261EB410113F0004F6C
:401700004FEA03334CEA133302D0524263EB430394EA050F00F0A780A4F10104D5F1200E0DDB02FA0EFC22FA05F2801841F1000103FA0EF2801843FA05F359410EE0A5F1D9
:4017400020050EF1200E012A03FA0EFC28BF4CF0020C43FA05F3C01851EBE37101F0004507D54FF0000EDCF1000C7EEB00006EEB0101B1F5801F1BD3B1F5001F0CD34908F3
:401780005FEA30004FEA3C0C04F101044FEA445212F5800F80F09A80BCF1004F08BF5FEA500C50F1000041EB045141EA050130BD5FEA4C0C404141EB010111F4801FA4F175
:4017C0000104E9D191F0000F04BF01460020B1FA81F308BF2033A3F10B03B3F120020CDA0C3208DD02F1140CC2F10C0201FA0CF021FA02F10CE002F11402D8BFC2F1200C82
:4018000001FA02F120FA0CFCDCBF41EA0C019040E41AA2BF01EB0451294330BD6FEA04041F3C1CDA0C340EDC04F11404C4F1200220FA04F001FA02F340EA030021FA04F3FF
:4018400045EA030130BDC4F10C04C4F1200220FA02F001FA04F340EA0300294630BD21FA04F0294630BD94F0000F83F4801306BF81F480110134013D4EE77FEA645C18BFAA
:401880007FEA655C29D094EA050F08BF90EA020F05D054EA000C04BF1946104630BD91EA030F1EBF0021002030BD5FEA545C05D14000494128BF41F0004130BD14F5800499
:4018C0003CBF01F5801130BD01F0004545F0FE4141F470014FF0000030BD7FEA645C1ABF194610467FEA655C1CBF0B46024650EA013406BF52EA033591EA030F41F400211D
:4019000030BD00BF90F0000F04BF0021704730B54FF4806404F132044FF000054FF0000150E700BF90F0000F04BF0021704730B54FF4806404F1320410F0004548BF4042F1
:401940004FF000013EE700BF42004FEAE2014FEA31014FEA02701FBF12F07F4393F07F4F81F06051704792F0000F14BF93F07F4F704730B54FF4607401F0004521F0004113
:4019800020E700BF50EA010208BF704730B54FF000050AE050EA010208BF704730B511F0004502D5404261EB41014FF4806404F132045FEA915C3FF4DCAE4FF003025FEAF4
:4019C000DC0C18BF03325FEADC0C18BF033202EBDC02C2F1200300FA03FC20FA02F001FA03FE40EA0E0021FA02F11444C1E600BF70B54FF0FF0C4CF4E06C1CEA11541DBFCE
:401A00001CEA135594EA0C0F95EA0C0F00F0DEF82C4481EA030621EA4C5123EA4C5350EA013518BF52EA033541F4801143F4801338D0A0FB02CE4FF00005E1FB02E506F04C
:401A40000042E0FB03E54FF00006E1FB03569CF0000F18BF4EF0010EA4F1FF04B6F5007F64F5407404D25FEA4E0E6D4146EB060642EAC62141EA55514FEAC52040EA5E5019
:401A80004FEACE2EB4F1FD0C88BFBCF5E06F1ED8BEF1004F08BF5FEA500E50F1000041EB045170BD06F0004646EA010140EA020081EA0301B4EB5C04C2BFD4EB0C0541EA27
:401AC000045170BD41F480114FF0000E013C00F3AB8014F1360FDEBF002001F0004170BDC4F10004203C35DA0C341BDC04F11404C4F1200500FA05F320FA04F001FA05F25C
:401B000040EA020001F0004221F0004110EBD37021FA04F642EB06015EEA430E08BF20EAD37070BDC4F10C04C4F1200500FA04F320FA05F001FA04F240EA020001F00041A5
:401B400010EBD37041F100015EEA430E08BF20EAD37070BDC4F1200500FA05F24EEA020E20FA04F301FA05F243EA020321FA04F001F0004121FA04F220EA020000EBD37046
:401B80005EEA430E08BF20EAD37070BD94F0000F0FD101F00046400041EB010111F4801F08BF013CF7D041EA060195F0000F18BF704703F00046520043EB030313F4801F0B
:401BC00008BF013DF7D043EA0603704794EA0C0F0CEA135518BF95EA0C0F0CD050EA410618BF52EA4306D1D181EA030101F000414FF0000070BD50EA410606BF1046194661
:401C000052EA430619D094EA0C0F02D150EA013613D195EA0C0F05D152EA03361CBF104619460AD181EA030101F0004141F0FE4141F470014FF0000070BD41F0FE4141F45D
:401C4000780170BD70B54FF0FF0C4CF4E06C1CEA11541DBF1CEA135594EA0C0F95EA0C0F00F0A7F8A4EB050481EA030E52EA03354FEA013100F088804FEA03334FF08055DE
:401C800045EA131343EA12634FEA022245EA111545EA10654FEA00260EF000419D4208BF964244F1FD0404F5407402D25B084FEA3202B61A65EB03055B084FEA32024FF4F9
:401CC00080104FF4002CB6EB020E75EB030E22BFB61A754640EA0C005B084FEA3202B6EB020E75EB030E22BFB61A754640EA5C005B084FEA3202B6EB020E75EB030E22BF6A
:401D0000B61A754640EA9C005B084FEA3202B6EB020E75EB030E22BFB61A754640EADC0055EA060E18D04FEA051545EA16754FEA06164FEAC30343EA52734FEAC2025FEA1A
:401D40001C1CC0D111F4801F0BD141EA00014FF000004FF0004CB6E711F4801F04BF01430020B4F1FD0C88BFBCF5E06F3FF6AFAEB5EB030C04BFB6EB020C5FEA500C50F12E
:401D8000000041EB045170BD0EF0004E4EEA113114EB5C04C2BFD4EB0C0541EA045170BD41F480114FF0000E013C90E645EA060E8DE60CEA135594EA0C0F08BF95EA0C0F7E
:401DC0003FF43BAF94EA0C0F0AD150EA01347FF434AF95EA0C0F7FF425AF104619462CE795EA0C0F06D152EA03353FF4FDAE1046194622E750EA410618BF52EA43067FF413
:401E0000C5AE50EA41047FF40DAF52EA43057FF4EBAE12E74FF0FF3C06E000BF4FF0010C02E000BF4FF0010C4DF804CD4FEA410C7FEA6C5C4FEA430C18BF7FEA6C5C1BD058
:401E400001B050EA410C0CBF52EA430C91EA030F02BF90EA020F0020704710F1000F91EA030F58BF994208BF90422CBFD8176FEAE37040F0010070474FEA410C7FEA6C5CD7
:401E800002D150EA013C07D14FEA430C7FEA6C5CD6D152EA033CD3D05DF8040B704700BF8446104662468C461946634600E000BF01B5FFF7B7FF002848BF10F1000F01BD08
:401EC0004DF808EDFFF7F4FF0CBF012000205DF808FB00BF4DF808EDFFF7EAFF34BF012000205DF808FB00BF4DF808EDFFF7E0FF94BF012000205DF808FB00BF4DF808ED44
:401F0000FFF7CEFF94BF012000205DF808FB00BF4DF808EDFFF7C4FF34BF012000205DF808FB00BF4A0011D212F5001211D20DD56FF47873B3EB62520ED44FEAC12343F018
:401F4000004343EA505323FA02F070474FF00000704750EA013002D14FF0FF3070474FF0000070474FEA4102B2F1E04324BFB3F5001CDCF1FE5C0DD901F0004C4FEAC0020B
:401F80004CEA5070B2F1004F40EB830008BF20F00100704711F0804F21D113F13872BCBF01F00040704741F480114FEA5252C2F11802C2F1200C10FA0CF320FA02F018BFEE
:401FC00040F001004FEAC1234FEAD32303FA0CFC40EA0C0023FA02F34FEA4303CCE77FEA625307D150EA01331EBF4FF0FE4040F44000704701F0004040F0FE4040F4000029
:40200000704700BF014B1868704700BF4481FF1F0E4B70B51E460E4C0025E41AA410A54204D056F8253098470135F8E702F006FB084B094C1E46E41AA4100025A54204D00F
:4020400056F8253098470135F8E770BD4846000048460000484600005046000010B5431E0A44914204D011F8014B03F8014FF8E710BD03460244934202D003F8011BFAE7C7
:4020800070472DE9F04788B0149F002B1E461299B8BF03F1004327F02007B6BF1E4600232D23462F1446109DDDF84CA00B7003D0452F03D1013501E0032300E0022307AAF9
:4020C000049206AA03928DE828042246334600F003FD472F804602D1119BDB0728D5462F08EB050911D198F80030302B0AD10022002320463146FFF7E3FE18B9C5F1010525
:40210000CAF80050DAF8003099440022002320463146FFF7D5FE08B9302202E0CDF81C9006E0079B994503D9591C07911A70F8E74046079B159AC8EB0303136008B0BDE845
:40214000F087034673B50029B8BF494203F8022BB4BF2D222B22092942701ADD0DF1070216460A2591FBF5F405FB1411092C01F1300102F8011D2146F4DC3031541E02F89A
:40218000011CB4421A460AD214F8012B03F8012BF7E71A463024214402F8024B5970101A02B070BD2DE9F04F91B00C46DDF8688016461F46054601F027FA03681846099339
:4021C00000F0F4FB00230E93D8F800300A90073323F0070303F1080294F81890D4F800B0C8F80020D3E90023C4E91223D4F84CA0D4F848802AF000430B934FF0FF32A74B53
:4022000040460B9901F054FFA0B94FF0FF32A34B40460B99FFF768FE60B90022002340465146FFF757FE10B12D2384F843309C4B9C4A0AE0424653464046514601F038FF10
:40224000002800F09281984B984AB9F1470F8CBF90469846032323612BF0040323604FF0000A3DE0B9F1670F00F08A81B9F1470F00F0868123600193636800210DF1330272
:40228000059002920093424653460691CDF81090CDF80CE02846FFF7F4FE09F0DF03472B804600F08481B9F1650F0D9900F28D8101394A4604F150000D91FFF742FF0E9AE6
:4022C00082468318012A236100F37C812268D10700F178819DF8333013B12D2384F84330009733460FAA2146284600F09FF9013002D14FF0FF3096E123685A0501D423693B
:4023000065E0B9F1650F40F2D580D4E9120100220023FFF7D5FD78B30123654A31462846B8470130E5D00E9B0D9A9A420BDB2368D80708D423689B0740F111814FF000087F
:4023400004F1190906E10A9B099A31462846B8470130CED04FF0000804F11A090E9B013B9845E7DA01234A4631462846B8470130BFD008F10108F1E70D9B002B29DC012354
:402380004B4A31462846B8470130B2D00D9B23B90E9B13B92368D907CCD50A9B099A31462846B8470130A4D04FF0000904F11A0A0D9B5B42994509DA012352463146284613
:4023C000B847013095D009F10109F1E70E9B4246A7E00E9AA36D9A42A8BF1A46002A914606DC4FF0000A29EAE97904F11A0B11E01346314642462846B8470130F1D178E796
:4024000001235A4631462846B84701303FF471AF0AF1010AA36DC9EB03029245F0DB08EB03090D9A0E9B9A420FDB2368DA070CD40E9B0D9A9844C9EB08089B1A9845A8BFB5
:402440009846B8F1000F08DC0FE00A9B099A31462846B8470130EBD14BE743464A4631462846B84701303FF444AF4FF0000928EAE87804F11A0A09E00123524631462846F7
:40248000B84701303FF435AF09F101090D9A0E9B9B1AC8EB03039945EEDB4BE7FFFFEF7FDA440000DE440000E2440000E6440000EA4400000E9A012A01DCDB0738D501234D
:4024C000424631462846B84701303FF412AF0A9B099A31462846B84701303FF40AAFD4E9120100220023FFF7EBFC20B14FF0000804F11A090EE00E9B08F10102013B19E018
:4025000001234A4631462846B84701303FF4F1AE08F101080E9B013B9845F1DB534604F1500231462846B84701307FF403AFE0E64246012331462846B8470130EED1D8E652
:4025400001234A4631462846B84701303FF4D1AE08F10108E3680F9A9B1A9845F0DBE0680F9B9842B8BF18465DE062680EA8531C0DF1340E4BF480637FF474AE062201E0C0
:4025800012B90122626075E6002106910DF133018DE80C00236005904246CDF81090CDF80CE0029153462846FFF76BFD80460D9BD81C02DB626893421DDDA9F102095FFA21
:4025C00089F970E60133236184E6B9F1660F14D10029636807DD216113B92268D2071DD501330B4419E013B92268D00701D5023313E0012311E04FF067090D9B0E9A9342D2
:4026000005DB22682361D10708D5013305E0002BD4BFC3F102030123134423610D9B4FF0000AA36556E611B0BDE8F08F2DE9F04791461F460A698B6806469342B8BF13466E
:40264000C9F8003091F843200C46DDF8208012B10133C9F800302368990642BFD9F800300233C9F80030256815F0060510D104F1190A07E00123524639463046C047013016
:402680001AD00135E368D9F800209B1A9D42F1DB94F843302268003318BF012392060FD5E118302081F843005A1C94F845102244023382F8431003E04FF0FF30BDE8F087FA
:4026C00004F1430239463046C0470130F4D02268D9F80050E36802F00602042A08BF5D1B2269A3680CBF25EAE57500259342C4BF9B1AED184FF000091A344D4509D001232C
:40270000224639463046C0470130D5D009F10109F3E70020BDE8F0872DE9F04317460A7E85B06E2A984606460C460C9B01F1430E00F0AE8011D8632A22D009D8002A00F063
:40274000BB80582A40F0CA8081F84520834955E0642A1ED0692A1CD0C0E0732A00F0B08009D86F2A2ED0702A40F0B8800A6842F020020A603EE0752A24D0782A3AD0ADE057
:402780001A6801F14205111D1960136884F84230A8E021681A6811F0800F02D0111D196008E011F0400F02F10401196002D0B2F9003000E01368002B3CDA2D225B4284F858
:4027C000432037E021681A6811F0800F02D0111D196007E011F0400F02F10401196001D0138800E01368227E5C496F2A14BF0A2208221BE078225A4984F8452022681868B2
:4028000012F0800F00F104051D6003D1550601D5038800E00368D00744BF42F0200222601BB9226822F0200222601022002084F8430001E049490A226568002DA56008DB5F
:40284000206820F0040020602BB9002D7DD175460CE0002B79D07546B3FBF2F002FB1033CB5C05F8013D03460028F5D1082A0BD12368DA0708D5236962689A42DEBF302325
:4028800005F8013C05F1FF35C5EB0E0323612EE008681A6810F0800F496903D0101D1860136808E010F0400F02F104001860136801D0198000E0196000232361754616E0FF
:4028C0001A68111D1960156800216268284600F0A7FE08B1401B6060636804E004F1420584F8422001232361002384F84330CDF800803B4603AA21463046FFF797FE0130E1
:4029000002D14FF0FF3026E023692A4639463046C0470130F5D023689B0710D5002504F1190907E001234A4639463046C0470130E7D00135E368039A9B1A9D42F2DBE068CE
:40294000039B9842B8BF184605E00B7804F1420584F842308AE705B0BDE8F083EC440000FD4400000EB400B54FF402719CB0ADF814106FF00041049107914FF6FF711DAB3D
:4029800002900690084853F8042BADF81610006802A9019301F03AFA029B00221A701CB05DF804EB03B070474481FF1F034613F8012B002AFBD1181A013870472DE9F74FF4
:4029C00003690C6980469C427FDC013C01F114074FEA840E00F1140606EB0E0357F82450019356F824300135B3FBF5F507EB0E09C5B34FF0000A3846B446D34650F8043B2C
:402A00009AB205FB02A21B0C4FEA124A05FB03A392B2C2EB0B0BBCF800204FEA134A5A441FFA83FBDCF800308145CBEB134303EB224392B242EA03424FEA234B4CF8042BA6
:402A4000DCD256F80E306BB9019B043B9E421A4602D3C8F8104005E01268043B002AF8D1013CF3E7404600F0F6FF00282BDB304601354FF0000E57F8042B036891B2C1EBE6
:402A80000E0E120C99B27144C2EB134303EB214389B24FEA234EB94541EA034340F8043BE9D256F8242006EB840362B9043B9E421A4602D3C8F8104005E01268043B002AB0
:402AC000F8D1013CF3E7284600E0002003B0BDE8F08F0000000000002DE9F04F456A95B08246219CCDE9022345B9102000F090FDCAF82400456085600560C560DAF824303D
:402B0000196859B15A68012393404A608B60504600F0C9FDDAF8243000221A60039BA04A002BBDBF01232360039B0023BCBF23F000430393DDF80C80A8BF236028F000430A
:402B40001B0D1B0593421DD142F20F73209A1360029B43B9934A944BC8F31300002814BF1846104600E09048229B002B00F04685C37813B100F1080300E0C31C229A136051
:402B800000F03CBDDDE902450022002320462946FFF796F9074658B1209A01231360229B002B00F01E8581481860013800F026BD12AB019313AB009322462B46504600F010
:402BC000C5FFC8F30A56049056B1C5F3130343F07F51204641F44011A6F2FF3611971DE0139B129E1E4406F23243202B0ADD029A06F21240C3F1400322FA00F008FA03F3EC
:402C0000184304E0C3F12000029B03FA00F0FEF779FE0123A1F1F871013E11930022644BFEF732FD58A3D3E90023FEF7E1FE58A3D3E90023FEF72AFD044630460D46FEF7E8
:402C400071FE55A3D3E90023FEF7D2FE02460B4620462946FEF71AFD04460D4601F03EFA00228346002320462946FFF733F958B15846FEF757FE02460B4620462946FFF7AF
:402C80001FF908B90BF1FF3BBBF1160F0DD8DDE90223484901EBCB01D1E90001FFF738F930B10BF1FF3B002300E00123109300E01090129B9E1B731E079343BFC3F1000889
:402CC000002307934FF00008BBF1000F06DB079BCDF82CB05B440793002705E00023CBEB0808CBF100070B931E9B092B28D8052BC4BF043B1E931E9BC8BF0025A3F10203D4
:402D0000D8BF0125032B20D8DFE803F0060E0204012302E0012308E000230A931F9B002B1DDD9946059321E000230A931F9B0BEB030909F10103012B0593B8BF012315E0E5
:402D4000012500231E930A9501E001230A934FF0FF390022CDF8149012231F9206E04FF001094B46CDF81490CDF87C90DAF8244000226260042101F114029A421CD8626855
:402D8000490001326260F6E761436F63A787D23FB3C8608B288AC63FFB799F501344D33F0000F07F0E45000017450000EB4400000000F83F284500006168504600F03EFCE0
:402DC000DAF8243020601B680693059B0E2B00F25B81002D00F05881DDE90234BBF1000FCDE90E3430DD9F4A0BF00F034FEA2B1502EBC303E80618CBCDE908340CD5DDE92C
:402E00000E01994B05F00F05D3E90823FEF71AFF0324CDE9020100E00224934E6DB1E90708D5DDE90801D6E90023FEF7E1FDCDE9080101346D100836F0E7DDE90823DDE92E
:402E40000201FEF7FFFE20E0CBF1000505B3DDE90E01844B05F00F0203EBC203D3E90023FEF7C6FDCDE902017F4E2D110023022455B1EA0705D5D6E90023FEF7B9FD013450
:402E800001236D100836F3E71BB1CDE9020100E00224109BE3B1DDE902560022734B28463146FFF717F898B1059B8BB1B9F1000F40F3E6800BF1FF330893314600226C4B17
:402EC0002846FEF795FD0134CDE902014E4602E0059ECDF820B02046FEF724FDDDE90223FEF786FD634B0022FEF7D0FBA1F1507304460C931D46D6B9DDE9020100225E4B0E
:402F0000FEF7C2FB22460C9BCDE90201FFF700F8002840F03F820C99224601F10043DDE90201FEF7D7FF002840F02B82A8E00A9A4C4B711E002A49D003EBC103D3E900230F
:402F400000204E49FEF77EFE22462B46FEF79CFBCDE90C01069CDDE9020101F0BFF80546FEF7E0FC02460B46DDE90201FEF78CFBDDE90C23303504F8015BCDE90201FEF794
:402F8000A9FF002840F01D83DDE9022300203749FEF77AFBDDE90C23FEF79CFF002840F0D180069BE31AB3426ADADDE90C0100222F4BFEF71DFD0022CDE90C01DDE902014B
:402FC0002B4BFEF715FDCDE90201C4E703EBC1012246D1E900012B46FEF70AFD069BCDE90C011D469C19DDE9020101F077F80646FEF798FC02460B46DDE90201FEF744FBA0
:40300000303605F8016BAC42CDE902014FF0000222D11A4BDDE90C01FEF738FB02460B46DDE90201FEF774FF002840F08B80DDE90C2300201149FEF727FB02460B46DDE974
:403040000201FEF747FFD8B114F8013C621E302B40F0B7821446F7E7054BFEF7C9FCCDE90201C0E728450000004600000000F03F0000244000001C40000014400000E03F45
:40308000DDE90E34CDE90234139B002B7CDBBBF10E0F79DCAB4B03EBCB03D3E900671F9B002B14DA059B002B11DC40F06C810022A54B30463946FEF79BFCDDE90223FEF7DE
:4030C0001DFF059D2E46002840F05F8165E1069CDDE9028932463B4640464946FEF7B2FD00F0FCFF0546FEF71DFC32463B46FEF77FFC0B46024649464046FEF7C5FA05F176
:40310000300E069B04F801EBC3EB040E059B73452DD102460B46FEF7B9FA8046894602460B4630463946FEF7D5FE78B942464B4630463946FEF7C4FE002800F04482EB07C0
:4031400004D440E2DDF820B000E01C4614F8012C631E392A07D1069A9A42F6D1069930220BF1010B0A701A7801321A702BE20022764BFEF73DFC0022002380468946FEF787
:403180009FFE0028A6D01EE20A9A002A2BD01E9A012A0ADC119A12B103F2334302E0129BC3F136033D46444613E0059B5D1EAF42BFBF0B9BEA1B9B180B93059BB6BF2F46DD
:4031C0007D1B0025002BA7BF4446059BC3EB08040023079A01211A4450469844079200F001FB064602E03D4644460A9E5CB1079B002B08DDA342A8BF2346079AC3EB0808AC
:40320000E41AD31A0793002F1DDD0A9BABB18DB131462A46504600F07FFB049A01460646504600F0E8FA04990890504600F03BFA089B04937A1B06D000E03A4604995046F9
:4032400000F06AFB04900121504600F0CBFA0B9B05465BB31A460146504600F05DFB1E9B0546012B18DC029B83B9039BC3F3130373B9039B23F000473F0D3F054FB1079BB7
:4032800008F1010801330793012702E0002700E0029F0B9B73B100E000272B6905EB8303186900F052FAC0F1200004E01E9B012BD9DD0B9F0120079B184410F01F0008D0E4
:4032C000C0F12003042B02DDC0F11C0002E006D018461C30079B8044034404440793B8F1000F05DD42460499504600F063FB0490079B002B05DD29461A46504600F05AFB9E
:403300000546109B23B32946049800F0A4FB00281EDA00230A220499504600F0DBF90A9B0BF1FF3B0490002B00F05F81314600230A22504600F0CEF9B9F1000F06463FDC24
:403340003BE000BF284500000000144000002440059B002B2BDC1E9B022B28DDDDF81490B9F1000F11D129464B460522504600F0B1F901460546049800F06DFB00280CDC90
:4033800003E0354600E000252E461F9B069C6FEA030B09E03546DDF820B0069B069A5C1C312313700BF1010B05960026F7E00A9BDDF8149023B9069CB2E01E9B022BCFDC7B
:4033C000002C05DD31462246504600F0F3FA06469FB17168504600F031F90446326906F10C01023292000C30FEF738FE01222146504600F0DFFA059000E00596029B069FF7
:4034000003F00103079329460498FFF7D7FA3146044600F13008049800F01DFB059A02902946504600F033FBC36802463BB901460A90049800F00FFB0A9A034600E0012378
:40344000114650460A9300F02EF90A9B53B91E9A42B9079A32B9B8F1390F2AD0029B002B1CDC1DE0029A002A04DB1BD11E9ACAB9079ABAB9002B13DD01220499504600F0D2
:4034800099FA2946049000F0E6FA002803DC07D118F0010F04D0B8F1390F0AD004F131087C1C0CE0002B07F101040BDDB8F1390F03D139233B70013756E008F1010887F893
:4034C00000806CE0069B2746E31A4B4504F8018C3BD000230A220499504600F0FBF8059B04909E424FF00A024FF000033146504604D100F0EFF80646059084E700F0EAF8F4
:40350000002306460A220599504600F0E3F8059079E700230A220499504600F0DBF8049029460498FFF74AFA069B00F1300804F8018BE31A4B45ECDB069B0596B9F1010F42
:40354000ACBF4B4401331F46002601220499504600F030FA2946049000F07DFA002803DC15D118F0010F12D03C4614F8013C621E392B09D1069B934204D10BF1010B3123A1
:40358000069A02E01446F0E70133137007E03C4614F8013C621E302B01D11446F8E72946504600F080F8059B6BB12EB19E4203D03146504600F077F80599504600F073F853
:4035C00001E0DDF820B00499504600F06CF80023209A23700BF101031360229B1BB11C6001E008480AE0069808E0B9F1000F3FF7E2AE1E9B022B7FF7DEAEB1E615B0BDE8CD
:40360000F08F00BFEA440000004870474881FF1F024B0146186800F041BB00BF4481FF1F10B5C9B202449042034605D01C7801308C42F8D1184610BD002010BD70B5456AD8
:4036400004460E463DB91020FFF7E2FF6062456085600560C560656AEB6843B1636ADB6853F8260078B1026843F8262017E021220421204600F0B8FA636AE860DB68002B44
:40368000ECD1002070BD012101FA06F56A1D9200204600F0A9FA0028F3D04660856000230361C36070BD70B5446A06460D463CB91020FFF7ADFF7062446084600460C4606E
:4036C0003DB1736A6A68DB6853F82210296043F8225070BD2DE9F04106460C460D691F4601F1140E0023DEF80000013381B202FB0171000C0F0C02FB007089B201EB00416B
:403700009D424FEA10474EF8041BECDCD7B1A3689D4212DB616830460131FFF78FFF8046226904F10C01023292000C30FEF796FC21463046FFF7B7FF444604EB85030135FD
:403740005F6125612046BDE8F081030C1B0413B90004102300E0002310F07F4F04BF0002083310F0704F04BF0001043310F0404F04BF80000233002803DB420003D5581C30
:4037800070471846704720207047036813F007020BD0D90722D49A074BBF5B089B08036003604CBF01200220704799B209B91B0C102213F0FF0F04BF1B0A0832190704BF26
:4037C0001B090432990704BF9B080232D90702D45B0805D00132036010467047002070472020704710B50C460121FFF727FF01224461026110BD2DE9F74F14460A692369D4
:4038000088469A42BEBF0B46A0461C46D8F81070D4F81090D8F80830D8F8041007EB09069E42C8BF0131FFF709FF00F114052B4605EB860C0022634502D243F8042BFAE7A2
:4038400004F1140208F1140102EB890301EB87070093009B0192934257D9B2F800B0BBF1000F23D08946AE464FF0000859F8044BBEF800A0A3B20BFB03A34FEA144ADEF800
:40388000004043444FEA14480BFB0A84F24604EB13449BB243EA04434F454FEA14484AF8043B01D9D646E1E7CEF80480019B0432B3F802A0BAF1000F21D02C4689462B6889
:4038C0004FF00008B9F800E0B4F802B09BB20AFB0EBEA346F04443EA08434BF8043B59F8043BB4F804E01B0C0AFB03E34F4503EB18434FEA134801D95C46E3E76360043578
:40390000A7E75CF8043D13B9013E002EF9DC066103B0BDE8F08F00002DE9F843154612F0030206460F4607D0214C013A002354F82220FFF7CFFE0746AD1036D0746A3CB9EE
:403940001020FFF765FE7062446084600460C460D6F82480D8F808404CB940F271213046FFF740FF04460023C8F8080003604FF00008EB070AD5394622463046FFF73BFFA1
:40398000814639463046FFF78EFE4F466D100CD0206808B10446ECE7224621463046FFF72AFF2060C0F80080F4E73846BDE8F883F04500002DE9F0470C4607469146266961
:4039C0004FEA621A56444968A368751CAB4202DA01315B00FAE73846FFF730FE002380461A4600F11401534503DA41F823200133F9E72AEAEA73206901EB830319F01F0961
:403A000004F1140101EB800E14D0C9F1200C002208689A4600FA09F0024343F8042B51F8042B8E4522FA0CF2F2D8CAF8042042B1B51C06E0043B51F8042B8E4543F8042F6D
:403A4000F9D8013D3846C8F810502146FFF72BFE4046BDE8F08703690A6910B59B1A11D192001430143183180A4453F8044D52F8041D8C4202D007D3012010BD9842F4D322
:403A8000002010BD184610BD4FF0FF3010BD2DE9F8430C460746114620461546FFF7DBFF061E08D131463846FFF7C8FD012303614661BDE8F883BCBF23462C463846616842
:403AC000BABF1D4601260026FFF7B8FD2B69C660266905F1140904F1140101EB860709EB830800F114054FF0000C51F8042B59F8044B93B29C44A3B2240CC3EB0C03C4EB11
:403B0000124202EB23429BB24FEA224CC84543EA02428E4645F8042BE7D8BE450ED25EF8041B8AB26244131403EB114392B242EA03424FEA234C45F8042BEEE755F8043D9F
:403B40000BB9013EFAE70661BDE8F8832DE9F3411C4601219046089E099DFFF76FFDC4F31302C4F30A5407460CB142F480120192B8F1000F19D002A840F8088DFFF705FE31
:403B8000009B48B1019AC0F1200102FA01F10B43C2407B61019200E07B61019B002B14BF02210121BB61396107E001A8FFF7EDFD019B01217B613961203034B1A4F2334420
:403BC00004443460C0F1350009E0A0F2324007EB810330601869FFF7B8FDC0EB41102860384602B0BDE8F08138B502FB01F4214600F054F8054618B122460021FEF739FAD3
:403C0000284638BD38B50546002944D051F8043C0C1F002BB8BFE41800F017FA1E4A1368114613B96360146030E0A3420DD92268A018834201BF18685B68121822606360C8
:403C40000C6023E0A24203D813465A68002AF9D118681918A1420BD12168014458188242196013D110685268014419605A600DE002D90C232B6009E021686018824201BF9E
:403C8000106852680918216062605C602846BDE8384000F0DBB938BDB881FF1F70B5CD1C25F0030508350C2D38BF0C25002D064601DBA94202D90C23336046E000F0C5F9DD
:403CC000234B1C681A462146A1B10B685B1B0ED40B2B03D90B60CC18CD501EE08C420BBF63684B681360636018BF0C4615E00C464968E9E7174C23681BB9304600F07AF99A
:403D000020602946304600F075F9431C18D0C41C24F00304A0420DD12560304600F096F904F10B00231D20F00700C31A0ED05A42E25070BD211A304600F05CF90130EBD154
:403D40000C233360304600F081F9002070BD00BFB881FF1FB481FF1F2DE9F0478E6882469E420C46914698463ED88A8912F4906F3AD02568096902236F1A656905EB45050C
:403D800095FBF3F57B1C43449D4238BF1D4653050FD52946FFF782FF064698B13A462169FEF75CF9A38923F4906343F08003A38113E02A4600F04BF9064670B921695046ED
:403DC000FFF720FF0C23CAF80030A3894FF0FF3043F04003A381BDE8F08726613E44266046466561ED1BA560464528BF464649463246206800F00EF9A36800209B1BA360E7
:403E000023681E442660BDE8F08700002DE9F04F9DB003938B8980461C060D4616460DD50B695BB94021FFF739FF2860286118B90C23C8F80030CDE040236B61002309937B
:403E400020238DF82930DFF89CB130238DF82A3037463C4614F8013B1BB9B7EB060910D003E0252BF9D02746F3E74B46324629464046FFF771FF013000F0A780099B4B44FD
:403E800009933B78002B00F0A08000234FF0FF3204930793059206938DF853301A930126052221784E48FFF7BBFB671C049B38B14B4A3C46801A06FA00F018430490EFE735
:403EC000D90644BF20228DF853201A0744BF2B228DF8532022782A2A03D0079A00210A200BE0039A111D12680391002A10DA524243F00200079204900BE027463B78013482
:403F0000303B092B03D800FB02320121F5E701B107923B782E2B1ED17B782A2B0AD1039B02371A1D1B680392002BB8BF4FF0FF33059310E0002319460593781C0A24074687
:403F40003A780130303A092A03D804FB01210123F5E703B10591032239782248FFF760FB40B14023CBEB000003FA00F0049B013718430490397806221B487E1C8DF828109A
:403F8000FFF74EFB88B1194B33B9039B073323F007030833039314E003AB00932A46144B04A94046FEF7FEF807E003AB00932A460F4B04A94046FEF7AFFBB0F1FF3F8246E6
:403FC00003D0099B5344099342E7AB895B0601D4099801E04FF0FF301DB0BDE8F08F00BF284600002E46000032460000A5210000593D000038B5064C0023054608462360B0
:40400000FCF794FB431C02D1236803B12B6038BDE082FF1F884210B501EB020301D8421E0BE09842FBD28118D21AD34204D013F8014D01F8014DF8E710BD994204D011F8D0
:40404000014B02F8014FF8E710BD70477047F8B5074615460E4621B91146BDE8F840FFF71DBE1AB9FFF7CEFD2846F8BD00F015F885420ED929463846FFF710FE044650B16A
:4040800031462A46FDF7EAFF31463846FFF7BAFD01E03046F8BD2046F8BD51F8040C0028BEBF091851F8043CC0180438704700004FEA410C7FEA6C5C02D150EA013C0AD124
:4040C0004FEA430C7FEA6C5C02D152EA033C02D14FF0000070474FF0010070474FEA410212F5001215D211D56FF47873B3EB625212D94FEAC12343F0004343EA505311F0A8
:40410000004F23FA02F018BF404270474FF00000704750EA013005D111F0004008BF6FF0004070474FF00000704700BF00000000AED580A83FD300408D142000A1C8DA12B4
:4041400081CFD9F1DB40A4A6AF00000000000000000000005F00000000070007000000143E143E1400242A7F2A1200231308646200364956205000080E01000000003E4104
:4041800000000000413E0000001C2241000000082A1C0800000808260000000808080808000060600000002010080402003E5149453E0000427F400000426151494600214F
:4041C00041454B31001814127F10002745454539003C4A49493100017109050300364949493600264949493E00003636000000005636000000081422410000141414141494
:4042000000412214080000020151090600324A555130007E1111117E007F49494936003E41414122007F4141221C007F49494941007F09090901003E4159497A007F0808C9
:40424000087F0000417F41000020417F0100007F08142241007F40404040007F0204027F007F0204087F003E4141413E007F09090906003E4151215E007F091929460026E2
:40428000494949320001017F0101003F4040403F001F2040201F003F4038403F006314081463000304780403006159494D4300007F4100000002040810200000417F00006F
:4042C000000402010204004040404040000102040000002054545478007F0804047800384444442800780404087F00385454541800087E0902000018A4A49C78007F0804C0
:4043000004080000447D40000020407D0000007C1211127C007C40404000007C04180478007C04040478003844444438007C1414140800182424147C007C1008040400444A
:404340007D40200000407C400000003C4040207C001C2040201C003C4030403C0044281028440014247C2414004464544C4400083641000000000077000000413608000057
:4043800000020102040200000000000053697374656D6120696E696369616C697A61646F2E0D0A0055736520656C20706F74656E63696F6D6574726F207061726120616A52
:4043C0007573746172206C612076656C6F63696461642E0D0A00000050726573696F6E6520656C20626F746F6E20706172612063616D62696172206C6120646972656363EF
:40440000696F6E2E0D0A0000497A717569657264610000004465726563686100566F6C74616A653A20252E346620562C2050574D2056616C75653A2025642C2050574D2065
:4044400050657263656E746167653A20256425250D0A000050574D3A20256425250000004469723A20257300566F6C74616A653A20252E3266205600446972656363696F16
:404480006E3A2025730D0A00035B00402443004040000000C8490040190040510040300000000140001000140140800400190140000300400140000A004C014000020050A4
:4044C0000140200060520040380400480600801801404004004880004300494E4600696E66004E414E006E616E00300030313233343536373839414243444546003031321E
:404500003334353637383961626364656600496E66696E697479004E614E00504F534958002E000000000000000000000000F03F0000000000002440000000000000594078
:404540000000000000408F40000000000088C34000000000006AF8400000000080842E4100000000D01263410000000084D797410000000065CDCD41000000205FA0024230
:40458000000000E876483742000000A2941A6D42000040E59C30A2420000901EC4BCD64200003426F56B0C430080E03779C3414300A0D8855734764300C84E676DC1AB4388
:4045C000003D9160E458E143408CB5781DAF154450EFE2D6E41A4B4492D54D06CFF08044F64AE1C7022DB544B49DD9794378EA4405000000190000007D0000000000000017
:404600000080E03779C34143176E05B5B5B89346F5F93FE9034F384D321D30F94877825A3CBF737FDD4F1575232D302B2000686C4C0065666745464700000000F8B500BFA0
:40464000F8BC08BC9E4670474D000000A9070000F8B500BFF8BC08BC9E4670472900000070460000C880FF1FB80000006801000000000000E882FF1F0000E02EC05D000092
:404680001800000000366E0101FF00000000000000000000000000000000000000000000000000000000000000000000D84400000000000000000000000000000000000021
:4046C0000000000000000000000000000000000000000000000000000000000000000000000000000000000000000000E480FF1F214500002D4600002D4600002D46000079
:404700002D4600002D4600002D4600002D4600002D4600002D460000FFFFFFFFFFFFFFFFFFFFFFFFFFFF0000000000000000000000000000000000000000000000000000D5
:404740000000000000000000000000000000000000000000000000000000000000000000000000000000000000000000000000000000000000000000000000000000000039
:4047800000000000000000000000000000000000000000000000000000000000000000000000000000000000000000000000000000000000000000000000000000000000F9
:4047C00000000000000000000000000000000000000000000000000000000000000000000000000000000000000000000000000000000000000000000000000000000000B9
:404800000000000000000000000000000000000000000000000000000000000000000000000000000000000000000000000000000000000000000000000000000000000078
:020000040003F7
:0200000480007A
:40000000025200400164004003650040040401400105014001070140620801403D090140051501400117014018180140421901404D1A0140441B01400242014001430140C1
:400040000244014003450140044601400547014008480140104901400D4C0140114D0140045001400151014014047902880D890F8A728B38B980BF40D904DF012401B4017E
:4000800002080A1012101301140C16031D041E0C2001220E2603270628012A063104320F3410350137023A083E104030410445D046104720482A49FF4AFF4BFF4DA04F0495
:4000C000501852805405580459045A045B045C215D225F01604062C06440654066C068C06AC06CC06EC08040830390309244947095069608970198029A0C9B059C249E408F
:400100009F02A001A306A450A840AA30AB01B107B201B47CB602BB0ABE44C063C105C50BC60EC70CC815C9FFCAFFCBFFCEF0CF44D00CD804D904DA04DC11DD01DF01E6C02B
:40014000EA40EB02010103400748084009480A040B400C400D020E1010A01110120813021512170419081A061D081E182101235024402640270828402B082F203118334057
:40018000350236403902430C45024708482049104A084B404F0150885502561057205C405E085F0175028601C058C2BFC47ECA45CC9ECE01D0C2D20CD6D0E402EC10E00815
:4001C000E401E680EA01EC10E24205730601070C092A0B440D730F04130819031B04260129802B153001330F353037C039A03B083F10580459045C125F0100080140030887
:40020000061009200A160B401098120213201708180419801A801F0120412205240825442608270128B029222F08312033043721384439023A203B103C083D083E103F4038
:400240004081410849804B94510459085A805B228C848E028F0592109350950199089A109B0AA008A540A608A708C027C20FC42FCA27CCA6CE7FD00BD20CD60FE242000178
:40028000013C024003C2040305C0080F09080A300C330E0C0FE311801223143F1518191C1BE11C021D102008214424042704280C29FF2C0C2DE72E332F18300F311F32408E
:4002C0003338342C361037C038803A223B0256025712580459045B045C115D105F01870192019B01A601B101B201BE04BF01C006C540C9FFCA07CBFFCC40CD20CEF0CF0594
:40030000D008D418D804D904DA04DB04DD11DF01E040E1A8E240E3200004012003820A020B900F8010A81202150819361B421F04210922022321260129042A202B823088BA
:40034000311032013720382439023B803F0449804A014C044D0157085A085F016580670869406A046B0470B888208B80900C9108920A9394954396049A209C209D229F0453
:40038000A508A708C00FC21DC42FCA0FCC2FCE4FD220D682D830E008E401E680EA01EC103E10CE2096107C01DE0153809401D40445089401A780D0018404A508A780B4017A
:4003C000EC082510530184088F019610C820D480E2401220164070087620822086408A20A008AA10B510C430DC80DE20E010E480EA801210132015017B107F4086108F802B
:40040000A004A508A780C40EDE03E00210407404831087408840890191019780A004A710AB20B508C408DE04E201E601EC0800060C0610061C0603C08280000043000000EB
:400440000001000001000002000101000210000C01000000001801001E180000100004000401180008080414000101001E000000011800011C00020600000000000001440C
:4004800045060300010C000E11FFFFFF62A0F0410C00000001000000040404041111000100000000000040020010301000101012000000000000000000000000000000008E
:4004C00000030300000000008300408083008300000000000002020002000000000B0B000000800004000006020002000000000007001801000000000000000000000000E3
:4005000000000000000000000000000000000000000000000000000000000000000000000000000000000000000000000000000000000000000000000000000000000000BB
:40054000000000000000000000000000000000000000000000000000000000000000000000000000000000000000000000000000000000000000000000000000000000007B
:40058000000000000000000000000000000000000000000000000000000000000000000000000000000000000000000000000000000000000000000000000000000000003B
:4005C00000000000000000000000000000000000000000000000000000000000000000000000000000000000000000000000000000000000000000000000000000000000FB
:0200000490006A
:0400000000004005B7
:0200000490105A
:04000000BC90ACAF55
:0200000490303A
:0200000096EE7A
:0200000490402A
:4000000000000000000000000000000000000000000000000000000000000000000000000000000000000000000000000000000000000000000000000000000000000000C0
:400040000000000000000000000000000000000000000000000000000000000000000000000000000000000000000000000000000000000000000000000000000000000080
:400080000000000000000000000000000000000000000000000000000000000000000000000000000000000000000000000000000000000000000000000000000000000040
:4000C0000000000000000000000000000000000000000000000000000000000000000000000000000000000000000000000000000000000000000000000000000000000000
:0200000490501A
:0C00000000012E16106900012E31A757D8
:00000001FF